{
  "_format": "hh-sol-artifact-1",
  "contractName": "Staking",
  "sourceName": "contracts/ERC20Staking.sol",
  "abi": [
    {
      "inputs": [
        {
          "internalType": "contract IERC20",
          "name": "_stakingToken",
          "type": "address"
        },
        {
          "internalType": "uint256",
          "name": "_rewardRate",
          "type": "uint256"
        }
      ],
      "stateMutability": "nonpayable",
      "type": "constructor"
    },
    {
      "inputs": [],
      "name": "ReentrancyGuardReentrantCall",
      "type": "error"
    },
    {
      "inputs": [
        {
          "internalType": "address",
          "name": "_user",
          "type": "address"
        }
      ],
      "name": "calculateReward",
      "outputs": [
        {
          "internalType": "uint256",
          "name": "",
          "type": "uint256"
        }
      ],
      "stateMutability": "view",
      "type": "function"
    },
    {
      "inputs": [],
      "name": "claimReward",
      "outputs": [],
      "stateMutability": "nonpayable",
      "type": "function"
    },
    {
      "inputs": [],
      "name": "rewardRate",
      "outputs": [
        {
          "internalType": "uint256",
          "name": "",
          "type": "uint256"
        }
      ],
      "stateMutability": "view",
      "type": "function"
    },
    {
      "inputs": [
        {
          "internalType": "address",
          "name": "",
          "type": "address"
        }
      ],
      "name": "rewards",
      "outputs": [
        {
          "internalType": "uint256",
          "name": "",
          "type": "uint256"
        }
      ],
      "stateMutability": "view",
      "type": "function"
    },
    {
      "inputs": [
        {
          "internalType": "uint256",
          "name": "_amount",
          "type": "uint256"
        }
      ],
      "name": "stake",
      "outputs": [],
      "stateMutability": "nonpayable",
      "type": "function"
    },
    {
      "inputs": [
        {
          "internalType": "address",
          "name": "",
          "type": "address"
        }
      ],
      "name": "stakes",
      "outputs": [
        {
          "internalType": "uint256",
          "name": "amount",
          "type": "uint256"
        },
        {
          "internalType": "uint256",
          "name": "rewardDebt",
          "type": "uint256"
        },
        {
          "internalType": "uint256",
          "name": "lastStakedTime",
          "type": "uint256"
        }
      ],
      "stateMutability": "view",
      "type": "function"
    },
    {
      "inputs": [],
      "name": "stakingToken",
      "outputs": [
        {
          "internalType": "contract IERC20",
          "name": "",
          "type": "address"
        }
      ],
      "stateMutability": "view",
      "type": "function"
    },
    {
      "inputs": [],
      "name": "totalStaked",
      "outputs": [
        {
          "internalType": "uint256",
          "name": "",
          "type": "uint256"
        }
      ],
      "stateMutability": "view",
      "type": "function"
    },
    {
      "inputs": [
        {
          "internalType": "uint256",
          "name": "_amount",
          "type": "uint256"
        }
      ],
      "name": "withdraw",
      "outputs": [],
      "stateMutability": "nonpayable",
      "type": "function"
    }
  ],
  "bytecode": "0x608060405234801561001057600080fd5b50604051610efc380380610efc83398181016040528101906100329190610134565b600160008190555081600160006101000a81548173ffffffffffffffffffffffffffffffffffffffff021916908373ffffffffffffffffffffffffffffffffffffffff160217905550806002819055505050610174565b600080fd5b600073ffffffffffffffffffffffffffffffffffffffff82169050919050565b60006100b98261008e565b9050919050565b60006100cb826100ae565b9050919050565b6100db816100c0565b81146100e657600080fd5b50565b6000815190506100f8816100d2565b92915050565b6000819050919050565b610111816100fe565b811461011c57600080fd5b50565b60008151905061012e81610108565b92915050565b6000806040838503121561014b5761014a610089565b5b6000610159858286016100e9565b925050602061016a8582860161011f565b9150509250929050565b610d79806101836000396000f3fe608060405234801561001057600080fd5b50600436106100935760003560e01c80637b0a47ee116100665780637b0a47ee14610134578063817b1cd214610152578063a694fc3a14610170578063b88a802f1461018c578063d82e39621461019657610093565b80630700037d1461009857806316934fc4146100c85780632e1a7d4d146100fa57806372f702f314610116575b600080fd5b6100b260048036038101906100ad91906108bc565b6101c6565b6040516100bf9190610902565b60405180910390f35b6100e260048036038101906100dd91906108bc565b6101de565b6040516100f19392919061091d565b60405180910390f35b610114600480360381019061010f9190610980565b610208565b005b61011e610384565b60405161012b9190610a0c565b60405180910390f35b61013c6103aa565b6040516101499190610902565b60405180910390f35b61015a6103b0565b6040516101679190610902565b60405180910390f35b61018a60048036038101906101859190610980565b6103b6565b005b610194610571565b005b6101b060048036038101906101ab91906108bc565b6106b7565b6040516101bd9190610902565b60405180910390f35b60056020528060005260406000206000915090505481565b60046020528060005260406000206000915090508060000154908060010154908060020154905083565b610210610747565b6000600460003373ffffffffffffffffffffffffffffffffffffffff1673ffffffffffffffffffffffffffffffffffffffff1681526020019081526020016000209050818160000154101561029a576040517f08c379a000000000000000000000000000000000000000000000000000000000815260040161029190610aaa565b60405180910390fd5b6102a33361078d565b818160000160008282546102b79190610af9565b9250508190555081600360008282546102d09190610af9565b92505081905550600160009054906101000a900473ffffffffffffffffffffffffffffffffffffffff1673ffffffffffffffffffffffffffffffffffffffff1663a9059cbb33846040518363ffffffff1660e01b8152600401610334929190610b3c565b6020604051808303816000875af1158015610353573d6000803e3d6000fd5b505050506040513d601f19601f820116820180604052508101906103779190610b9d565b505061038161084f565b50565b600160009054906101000a900473ffffffffffffffffffffffffffffffffffffffff1681565b60025481565b60035481565b6103be610747565b60008111610401576040517f08c379a00000000000000000000000000000000000000000000000000000000081526004016103f890610c16565b60405180910390fd5b61040a3361078d565b80600460003373ffffffffffffffffffffffffffffffffffffffff1673ffffffffffffffffffffffffffffffffffffffff168152602001908152602001600020600001600082825461045c9190610c36565b9250508190555042600460003373ffffffffffffffffffffffffffffffffffffffff1673ffffffffffffffffffffffffffffffffffffffff1681526020019081526020016000206002018190555080600360008282546104bc9190610c36565b92505081905550600160009054906101000a900473ffffffffffffffffffffffffffffffffffffffff1673ffffffffffffffffffffffffffffffffffffffff166323b872dd3330846040518463ffffffff1660e01b815260040161052293929190610c6a565b6020604051808303816000875af1158015610541573d6000803e3d6000fd5b505050506040513d601f19601f820116820180604052508101906105659190610b9d565b5061056e61084f565b50565b610579610747565b6105823361078d565b6000600560003373ffffffffffffffffffffffffffffffffffffffff1673ffffffffffffffffffffffffffffffffffffffff1681526020019081526020016000205490506000600560003373ffffffffffffffffffffffffffffffffffffffff1673ffffffffffffffffffffffffffffffffffffffff16815260200190815260200160002081905550600160009054906101000a900473ffffffffffffffffffffffffffffffffffffffff1673ffffffffffffffffffffffffffffffffffffffff1663a9059cbb33836040518363ffffffff1660e01b8152600401610668929190610b3c565b6020604051808303816000875af1158015610687573d6000803e3d6000fd5b505050506040513d601f19601f820116820180604052508101906106ab9190610b9d565b50506106b561084f565b565b600080600460008473ffffffffffffffffffffffffffffffffffffffff1673ffffffffffffffffffffffffffffffffffffffff1681526020019081526020016000209050600081600201544261070d9190610af9565b90506000603c8260025485600001546107269190610ca1565b6107309190610ca1565b61073a9190610d12565b9050809350505050919050565b600260005403610783576040517f3ee5aeb500000000000000000000000000000000000000000000000000000000815260040160405180910390fd5b6002600081905550565b6000600460008373ffffffffffffffffffffffffffffffffffffffff1673ffffffffffffffffffffffffffffffffffffffff168152602001908152602001600020905060008160000154111561084b5760006107e8836106b7565b905080600560008573ffffffffffffffffffffffffffffffffffffffff1673ffffffffffffffffffffffffffffffffffffffff16815260200190815260200160002060008282546108399190610c36565b92505081905550428260020181905550505b5050565b6001600081905550565b600080fd5b600073ffffffffffffffffffffffffffffffffffffffff82169050919050565b60006108898261085e565b9050919050565b6108998161087e565b81146108a457600080fd5b50565b6000813590506108b681610890565b92915050565b6000602082840312156108d2576108d1610859565b5b60006108e0848285016108a7565b91505092915050565b6000819050919050565b6108fc816108e9565b82525050565b600060208201905061091760008301846108f3565b92915050565b600060608201905061093260008301866108f3565b61093f60208301856108f3565b61094c60408301846108f3565b949350505050565b61095d816108e9565b811461096857600080fd5b50565b60008135905061097a81610954565b92915050565b60006020828403121561099657610995610859565b5b60006109a48482850161096b565b91505092915050565b6000819050919050565b60006109d26109cd6109c88461085e565b6109ad565b61085e565b9050919050565b60006109e4826109b7565b9050919050565b60006109f6826109d9565b9050919050565b610a06816109eb565b82525050565b6000602082019050610a2160008301846109fd565b92915050565b600082825260208201905092915050565b7f576974686472617720616d6f756e742065786365656473207374616b6564206160008201527f6d6f756e74000000000000000000000000000000000000000000000000000000602082015250565b6000610a94602583610a27565b9150610a9f82610a38565b604082019050919050565b60006020820190508181036000830152610ac381610a87565b9050919050565b7f4e487b7100000000000000000000000000000000000000000000000000000000600052601160045260246000fd5b6000610b04826108e9565b9150610b0f836108e9565b9250828203905081811115610b2757610b26610aca565b5b92915050565b610b368161087e565b82525050565b6000604082019050610b516000830185610b2d565b610b5e60208301846108f3565b9392505050565b60008115159050919050565b610b7a81610b65565b8114610b8557600080fd5b50565b600081519050610b9781610b71565b92915050565b600060208284031215610bb357610bb2610859565b5b6000610bc184828501610b88565b91505092915050565b7f43616e6e6f74207374616b652030000000000000000000000000000000000000600082015250565b6000610c00600e83610a27565b9150610c0b82610bca565b602082019050919050565b60006020820190508181036000830152610c2f81610bf3565b9050919050565b6000610c41826108e9565b9150610c4c836108e9565b9250828201905080821115610c6457610c63610aca565b5b92915050565b6000606082019050610c7f6000830186610b2d565b610c8c6020830185610b2d565b610c9960408301846108f3565b949350505050565b6000610cac826108e9565b9150610cb7836108e9565b9250828202610cc5816108e9565b91508282048414831517610cdc57610cdb610aca565b5b5092915050565b7f4e487b7100000000000000000000000000000000000000000000000000000000600052601260045260246000fd5b6000610d1d826108e9565b9150610d28836108e9565b925082610d3857610d37610ce3565b5b82820490509291505056fea2646970667358221220b41ee8fc94319859a8ea545c1804601dbc2860c99f66b2d86c956f9f929442e464736f6c634300081b0033",
  "linkReferences": {},
  "deployedLinkReferences": {}
}