{
  "_format": "hh-sol-artifact-1",
  "contractName": "Staking",
  "sourceName": "contracts/ERC20Staking.sol",
  "abi": [
    {
      "inputs": [
        {
          "internalType": "contract IERC20",
          "name": "_stakingToken",
          "type": "address"
        },
        {
          "internalType": "uint256",
          "name": "_rewardRate",
          "type": "uint256"
        }
      ],
      "stateMutability": "nonpayable",
      "type": "constructor"
    },
    {
      "inputs": [],
      "name": "ReentrancyGuardReentrantCall",
      "type": "error"
    },
    {
      "inputs": [
        {
          "internalType": "address",
          "name": "_user",
          "type": "address"
        }
      ],
      "name": "calculateReward",
      "outputs": [
        {
          "internalType": "uint256",
          "name": "",
          "type": "uint256"
        }
      ],
      "stateMutability": "view",
      "type": "function"
    },
    {
      "inputs": [],
      "name": "claimReward",
      "outputs": [],
      "stateMutability": "nonpayable",
      "type": "function"
    },
    {
      "inputs": [],
      "name": "rewardRate",
      "outputs": [
        {
          "internalType": "uint256",
          "name": "",
          "type": "uint256"
        }
      ],
      "stateMutability": "view",
      "type": "function"
    },
    {
      "inputs": [
        {
          "internalType": "address",
          "name": "",
          "type": "address"
        }
      ],
      "name": "rewards",
      "outputs": [
        {
          "internalType": "uint256",
          "name": "",
          "type": "uint256"
        }
      ],
      "stateMutability": "view",
      "type": "function"
    },
    {
      "inputs": [
        {
          "internalType": "uint256",
          "name": "_amount",
          "type": "uint256"
        }
      ],
      "name": "stake",
      "outputs": [],
      "stateMutability": "nonpayable",
      "type": "function"
    },
    {
      "inputs": [
        {
          "internalType": "address",
          "name": "",
          "type": "address"
        }
      ],
      "name": "stakes",
      "outputs": [
        {
          "internalType": "uint256",
          "name": "amount",
          "type": "uint256"
        },
        {
          "internalType": "uint256",
          "name": "rewardDebt",
          "type": "uint256"
        },
        {
          "internalType": "uint256",
          "name": "lastStakedTime",
          "type": "uint256"
        }
      ],
      "stateMutability": "view",
      "type": "function"
    },
    {
      "inputs": [],
      "name": "stakingToken",
      "outputs": [
        {
          "internalType": "contract IERC20",
          "name": "",
          "type": "address"
        }
      ],
      "stateMutability": "view",
      "type": "function"
    },
    {
      "inputs": [],
      "name": "totalStaked",
      "outputs": [
        {
          "internalType": "uint256",
          "name": "",
          "type": "uint256"
        }
      ],
      "stateMutability": "view",
      "type": "function"
    },
    {
      "inputs": [
        {
          "internalType": "uint256",
          "name": "_amount",
          "type": "uint256"
        }
      ],
      "name": "withdraw",
      "outputs": [],
      "stateMutability": "nonpayable",
      "type": "function"
    }
  ],
  "bytecode": "0x608060405234801561001057600080fd5b50604051610efd380380610efd83398181016040528101906100329190610134565b600160008190555081600160006101000a81548173ffffffffffffffffffffffffffffffffffffffff021916908373ffffffffffffffffffffffffffffffffffffffff160217905550806002819055505050610174565b600080fd5b600073ffffffffffffffffffffffffffffffffffffffff82169050919050565b60006100b98261008e565b9050919050565b60006100cb826100ae565b9050919050565b6100db816100c0565b81146100e657600080fd5b50565b6000815190506100f8816100d2565b92915050565b6000819050919050565b610111816100fe565b811461011c57600080fd5b50565b60008151905061012e81610108565b92915050565b6000806040838503121561014b5761014a610089565b5b6000610159858286016100e9565b925050602061016a8582860161011f565b9150509250929050565b610d7a806101836000396000f3fe608060405234801561001057600080fd5b50600436106100935760003560e01c80637b0a47ee116100665780637b0a47ee14610134578063817b1cd214610152578063a694fc3a14610170578063b88a802f1461018c578063d82e39621461019657610093565b80630700037d1461009857806316934fc4146100c85780632e1a7d4d146100fa57806372f702f314610116575b600080fd5b6100b260048036038101906100ad91906108bd565b6101c6565b6040516100bf9190610903565b60405180910390f35b6100e260048036038101906100dd91906108bd565b6101de565b6040516100f19392919061091e565b60405180910390f35b610114600480360381019061010f9190610981565b610208565b005b61011e610384565b60405161012b9190610a0d565b60405180910390f35b61013c6103aa565b6040516101499190610903565b60405180910390f35b61015a6103b0565b6040516101679190610903565b60405180910390f35b61018a60048036038101906101859190610981565b6103b6565b005b610194610571565b005b6101b060048036038101906101ab91906108bd565b6106b7565b6040516101bd9190610903565b60405180910390f35b60056020528060005260406000206000915090505481565b60046020528060005260406000206000915090508060000154908060010154908060020154905083565b610210610748565b6000600460003373ffffffffffffffffffffffffffffffffffffffff1673ffffffffffffffffffffffffffffffffffffffff1681526020019081526020016000209050818160000154101561029a576040517f08c379a000000000000000000000000000000000000000000000000000000000815260040161029190610aab565b60405180910390fd5b6102a33361078e565b818160000160008282546102b79190610afa565b9250508190555081600360008282546102d09190610afa565b92505081905550600160009054906101000a900473ffffffffffffffffffffffffffffffffffffffff1673ffffffffffffffffffffffffffffffffffffffff1663a9059cbb33846040518363ffffffff1660e01b8152600401610334929190610b3d565b6020604051808303816000875af1158015610353573d6000803e3d6000fd5b505050506040513d601f19601f820116820180604052508101906103779190610b9e565b5050610381610850565b50565b600160009054906101000a900473ffffffffffffffffffffffffffffffffffffffff1681565b60025481565b60035481565b6103be610748565b60008111610401576040517f08c379a00000000000000000000000000000000000000000000000000000000081526004016103f890610c17565b60405180910390fd5b61040a3361078e565b80600460003373ffffffffffffffffffffffffffffffffffffffff1673ffffffffffffffffffffffffffffffffffffffff168152602001908152602001600020600001600082825461045c9190610c37565b9250508190555042600460003373ffffffffffffffffffffffffffffffffffffffff1673ffffffffffffffffffffffffffffffffffffffff1681526020019081526020016000206002018190555080600360008282546104bc9190610c37565b92505081905550600160009054906101000a900473ffffffffffffffffffffffffffffffffffffffff1673ffffffffffffffffffffffffffffffffffffffff166323b872dd3330846040518463ffffffff1660e01b815260040161052293929190610c6b565b6020604051808303816000875af1158015610541573d6000803e3d6000fd5b505050506040513d601f19601f820116820180604052508101906105659190610b9e565b5061056e610850565b50565b610579610748565b6105823361078e565b6000600560003373ffffffffffffffffffffffffffffffffffffffff1673ffffffffffffffffffffffffffffffffffffffff1681526020019081526020016000205490506000600560003373ffffffffffffffffffffffffffffffffffffffff1673ffffffffffffffffffffffffffffffffffffffff16815260200190815260200160002081905550600160009054906101000a900473ffffffffffffffffffffffffffffffffffffffff1673ffffffffffffffffffffffffffffffffffffffff1663a9059cbb33836040518363ffffffff1660e01b8152600401610668929190610b3d565b6020604051808303816000875af1158015610687573d6000803e3d6000fd5b505050506040513d601f19601f820116820180604052508101906106ab9190610b9e565b50506106b5610850565b565b600080600460008473ffffffffffffffffffffffffffffffffffffffff1673ffffffffffffffffffffffffffffffffffffffff1681526020019081526020016000209050600081600201544261070d9190610afa565b90506000610e108260025485600001546107279190610ca2565b6107319190610ca2565b61073b9190610d13565b9050809350505050919050565b600260005403610784576040517f3ee5aeb500000000000000000000000000000000000000000000000000000000815260040160405180910390fd5b6002600081905550565b6000600460008373ffffffffffffffffffffffffffffffffffffffff1673ffffffffffffffffffffffffffffffffffffffff168152602001908152602001600020905060008160000154111561084c5760006107e9836106b7565b905080600560008573ffffffffffffffffffffffffffffffffffffffff1673ffffffffffffffffffffffffffffffffffffffff168152602001908152602001600020600082825461083a9190610c37565b92505081905550428260020181905550505b5050565b6001600081905550565b600080fd5b600073ffffffffffffffffffffffffffffffffffffffff82169050919050565b600061088a8261085f565b9050919050565b61089a8161087f565b81146108a557600080fd5b50565b6000813590506108b781610891565b92915050565b6000602082840312156108d3576108d261085a565b5b60006108e1848285016108a8565b91505092915050565b6000819050919050565b6108fd816108ea565b82525050565b600060208201905061091860008301846108f4565b92915050565b600060608201905061093360008301866108f4565b61094060208301856108f4565b61094d60408301846108f4565b949350505050565b61095e816108ea565b811461096957600080fd5b50565b60008135905061097b81610955565b92915050565b6000602082840312156109975761099661085a565b5b60006109a58482850161096c565b91505092915050565b6000819050919050565b60006109d36109ce6109c98461085f565b6109ae565b61085f565b9050919050565b60006109e5826109b8565b9050919050565b60006109f7826109da565b9050919050565b610a07816109ec565b82525050565b6000602082019050610a2260008301846109fe565b92915050565b600082825260208201905092915050565b7f576974686472617720616d6f756e742065786365656473207374616b6564206160008201527f6d6f756e74000000000000000000000000000000000000000000000000000000602082015250565b6000610a95602583610a28565b9150610aa082610a39565b604082019050919050565b60006020820190508181036000830152610ac481610a88565b9050919050565b7f4e487b7100000000000000000000000000000000000000000000000000000000600052601160045260246000fd5b6000610b05826108ea565b9150610b10836108ea565b9250828203905081811115610b2857610b27610acb565b5b92915050565b610b378161087f565b82525050565b6000604082019050610b526000830185610b2e565b610b5f60208301846108f4565b9392505050565b60008115159050919050565b610b7b81610b66565b8114610b8657600080fd5b50565b600081519050610b9881610b72565b92915050565b600060208284031215610bb457610bb361085a565b5b6000610bc284828501610b89565b91505092915050565b7f43616e6e6f74207374616b652030000000000000000000000000000000000000600082015250565b6000610c01600e83610a28565b9150610c0c82610bcb565b602082019050919050565b60006020820190508181036000830152610c3081610bf4565b9050919050565b6000610c42826108ea565b9150610c4d836108ea565b9250828201905080821115610c6557610c64610acb565b5b92915050565b6000606082019050610c806000830186610b2e565b610c8d6020830185610b2e565b610c9a60408301846108f4565b949350505050565b6000610cad826108ea565b9150610cb8836108ea565b9250828202610cc6816108ea565b91508282048414831517610cdd57610cdc610acb565b5b5092915050565b7f4e487b7100000000000000000000000000000000000000000000000000000000600052601260045260246000fd5b6000610d1e826108ea565b9150610d29836108ea565b925082610d3957610d38610ce4565b5b82820490509291505056fea2646970667358221220b0d402ad812c93207aabfd3a9637fdeb38b87063478a45b15755f3a91b41e90e64736f6c634300081b0033",
  "linkReferences": {},
  "deployedLinkReferences": {}
}