{
  "_format": "hh-sol-artifact-1",
  "contractName": "Staking",
  "sourceName": "contracts/ERC20Staking.sol",
  "abi": [
    {
      "inputs": [
        {
          "internalType": "contract IERC20",
          "name": "_stakingToken",
          "type": "address"
        },
        {
          "internalType": "uint256",
          "name": "_rewardRate",
          "type": "uint256"
        }
      ],
      "stateMutability": "nonpayable",
      "type": "constructor"
    },
    {
      "inputs": [
        {
          "internalType": "address",
          "name": "owner",
          "type": "address"
        }
      ],
      "name": "OwnableInvalidOwner",
      "type": "error"
    },
    {
      "inputs": [
        {
          "internalType": "address",
          "name": "account",
          "type": "address"
        }
      ],
      "name": "OwnableUnauthorizedAccount",
      "type": "error"
    },
    {
      "inputs": [],
      "name": "ReentrancyGuardReentrantCall",
      "type": "error"
    },
    {
      "anonymous": false,
      "inputs": [
        {
          "indexed": true,
          "internalType": "address",
          "name": "previousOwner",
          "type": "address"
        },
        {
          "indexed": true,
          "internalType": "address",
          "name": "newOwner",
          "type": "address"
        }
      ],
      "name": "OwnershipTransferred",
      "type": "event"
    },
    {
      "anonymous": false,
      "inputs": [
        {
          "indexed": true,
          "internalType": "address",
          "name": "user",
          "type": "address"
        },
        {
          "indexed": false,
          "internalType": "uint256",
          "name": "reward",
          "type": "uint256"
        }
      ],
      "name": "RewardClaimed",
      "type": "event"
    },
    {
      "anonymous": false,
      "inputs": [
        {
          "indexed": false,
          "internalType": "uint256",
          "name": "newRewardRate",
          "type": "uint256"
        }
      ],
      "name": "RewardRateUpdated",
      "type": "event"
    },
    {
      "anonymous": false,
      "inputs": [
        {
          "indexed": true,
          "internalType": "address",
          "name": "user",
          "type": "address"
        },
        {
          "indexed": false,
          "internalType": "uint256",
          "name": "amount",
          "type": "uint256"
        }
      ],
      "name": "Staked",
      "type": "event"
    },
    {
      "anonymous": false,
      "inputs": [
        {
          "indexed": true,
          "internalType": "address",
          "name": "user",
          "type": "address"
        },
        {
          "indexed": false,
          "internalType": "uint256",
          "name": "amount",
          "type": "uint256"
        }
      ],
      "name": "Withdrawn",
      "type": "event"
    },
    {
      "inputs": [],
      "name": "_owner",
      "outputs": [
        {
          "internalType": "address",
          "name": "",
          "type": "address"
        }
      ],
      "stateMutability": "view",
      "type": "function"
    },
    {
      "inputs": [
        {
          "internalType": "address",
          "name": "_user",
          "type": "address"
        }
      ],
      "name": "calculateReward",
      "outputs": [
        {
          "internalType": "uint256",
          "name": "",
          "type": "uint256"
        }
      ],
      "stateMutability": "view",
      "type": "function"
    },
    {
      "inputs": [],
      "name": "claimReward",
      "outputs": [],
      "stateMutability": "nonpayable",
      "type": "function"
    },
    {
      "inputs": [],
      "name": "owner",
      "outputs": [
        {
          "internalType": "address",
          "name": "",
          "type": "address"
        }
      ],
      "stateMutability": "view",
      "type": "function"
    },
    {
      "inputs": [],
      "name": "renounceOwnership",
      "outputs": [],
      "stateMutability": "nonpayable",
      "type": "function"
    },
    {
      "inputs": [],
      "name": "rewardRate",
      "outputs": [
        {
          "internalType": "uint256",
          "name": "",
          "type": "uint256"
        }
      ],
      "stateMutability": "view",
      "type": "function"
    },
    {
      "inputs": [
        {
          "internalType": "address",
          "name": "",
          "type": "address"
        }
      ],
      "name": "rewards",
      "outputs": [
        {
          "internalType": "uint256",
          "name": "",
          "type": "uint256"
        }
      ],
      "stateMutability": "view",
      "type": "function"
    },
    {
      "inputs": [
        {
          "internalType": "uint256",
          "name": "newRewardRate",
          "type": "uint256"
        }
      ],
      "name": "setRewardRate",
      "outputs": [],
      "stateMutability": "nonpayable",
      "type": "function"
    },
    {
      "inputs": [
        {
          "internalType": "uint256",
          "name": "_amount",
          "type": "uint256"
        }
      ],
      "name": "stake",
      "outputs": [],
      "stateMutability": "nonpayable",
      "type": "function"
    },
    {
      "inputs": [
        {
          "internalType": "address",
          "name": "",
          "type": "address"
        }
      ],
      "name": "stakes",
      "outputs": [
        {
          "internalType": "uint256",
          "name": "amount",
          "type": "uint256"
        },
        {
          "internalType": "uint256",
          "name": "rewardDebt",
          "type": "uint256"
        },
        {
          "internalType": "uint256",
          "name": "lastStakedTime",
          "type": "uint256"
        }
      ],
      "stateMutability": "view",
      "type": "function"
    },
    {
      "inputs": [],
      "name": "stakingToken",
      "outputs": [
        {
          "internalType": "contract IERC20",
          "name": "",
          "type": "address"
        }
      ],
      "stateMutability": "view",
      "type": "function"
    },
    {
      "inputs": [],
      "name": "totalStaked",
      "outputs": [
        {
          "internalType": "uint256",
          "name": "",
          "type": "uint256"
        }
      ],
      "stateMutability": "view",
      "type": "function"
    },
    {
      "inputs": [
        {
          "internalType": "address",
          "name": "newOwner",
          "type": "address"
        }
      ],
      "name": "transferOwnership",
      "outputs": [],
      "stateMutability": "nonpayable",
      "type": "function"
    },
    {
      "inputs": [
        {
          "internalType": "uint256",
          "name": "_amount",
          "type": "uint256"
        }
      ],
      "name": "withdraw",
      "outputs": [],
      "stateMutability": "nonpayable",
      "type": "function"
    }
  ],
  "bytecode": "0x608060405234801561001057600080fd5b50604051611429380380611429833981810160405281019061003291906102be565b336001600081905550600073ffffffffffffffffffffffffffffffffffffffff168173ffffffffffffffffffffffffffffffffffffffff16036100ad5760006040517f1e4fbdf70000000000000000000000000000000000000000000000000000000081526004016100a4919061030d565b60405180910390fd5b6100bc8161014d60201b60201c565b5081600260006101000a81548173ffffffffffffffffffffffffffffffffffffffff021916908373ffffffffffffffffffffffffffffffffffffffff1602179055508060038190555033600560006101000a81548173ffffffffffffffffffffffffffffffffffffffff021916908373ffffffffffffffffffffffffffffffffffffffff1602179055505050610328565b6000600160009054906101000a900473ffffffffffffffffffffffffffffffffffffffff16905081600160006101000a81548173ffffffffffffffffffffffffffffffffffffffff021916908373ffffffffffffffffffffffffffffffffffffffff1602179055508173ffffffffffffffffffffffffffffffffffffffff168173ffffffffffffffffffffffffffffffffffffffff167f8be0079c531659141344cd1fd0a4f28419497f9722a3daafe3b4186f6b6457e060405160405180910390a35050565b600080fd5b600073ffffffffffffffffffffffffffffffffffffffff82169050919050565b600061024382610218565b9050919050565b600061025582610238565b9050919050565b6102658161024a565b811461027057600080fd5b50565b6000815190506102828161025c565b92915050565b6000819050919050565b61029b81610288565b81146102a657600080fd5b50565b6000815190506102b881610292565b92915050565b600080604083850312156102d5576102d4610213565b5b60006102e385828601610273565b92505060206102f4858286016102a9565b9150509250929050565b61030781610238565b82525050565b600060208201905061032260008301846102fe565b92915050565b6110f2806103376000396000f3fe608060405234801561001057600080fd5b50600436106100ea5760003560e01c80638da5cb5b1161008c578063b2bdfa7b11610066578063b2bdfa7b14610227578063b88a802f14610245578063d82e39621461024f578063f2fde38b1461027f576100ea565b80638da5cb5b146101d15780639e447fc6146101ef578063a694fc3a1461020b576100ea565b8063715018a6116100c8578063715018a61461016d57806372f702f3146101775780637b0a47ee14610195578063817b1cd2146101b3576100ea565b80630700037d146100ef57806316934fc41461011f5780632e1a7d4d14610151575b600080fd5b61010960048036038101906101049190610c1a565b61029b565b6040516101169190610c60565b60405180910390f35b61013960048036038101906101349190610c1a565b6102b3565b60405161014893929190610c7b565b60405180910390f35b61016b60048036038101906101669190610cde565b6102dd565b005b610175610459565b005b61017f61046d565b60405161018c9190610d6a565b60405180910390f35b61019d610493565b6040516101aa9190610c60565b60405180910390f35b6101bb610499565b6040516101c89190610c60565b60405180910390f35b6101d961049f565b6040516101e69190610d94565b60405180910390f35b61020960048036038101906102049190610cde565b6104c9565b005b61022560048036038101906102209190610cde565b610512565b005b61022f6106cd565b60405161023c9190610d94565b60405180910390f35b61024d6106f3565b005b61026960048036038101906102649190610c1a565b610839565b6040516102769190610c60565b60405180910390f35b61029960048036038101906102949190610c1a565b6108ca565b005b60076020528060005260406000206000915090505481565b60066020528060005260406000206000915090508060000154908060010154908060020154905083565b6102e5610950565b6000600660003373ffffffffffffffffffffffffffffffffffffffff1673ffffffffffffffffffffffffffffffffffffffff1681526020019081526020016000209050818160000154101561036f576040517f08c379a000000000000000000000000000000000000000000000000000000000815260040161036690610e32565b60405180910390fd5b61037833610996565b8181600001600082825461038c9190610e81565b9250508190555081600460008282546103a59190610e81565b92505081905550600260009054906101000a900473ffffffffffffffffffffffffffffffffffffffff1673ffffffffffffffffffffffffffffffffffffffff1663a9059cbb33846040518363ffffffff1660e01b8152600401610409929190610eb5565b6020604051808303816000875af1158015610428573d6000803e3d6000fd5b505050506040513d601f19601f8201168201806040525081019061044c9190610f16565b5050610456610a58565b50565b610461610a62565b61046b6000610ae9565b565b600260009054906101000a900473ffffffffffffffffffffffffffffffffffffffff1681565b60035481565b60045481565b6000600160009054906101000a900473ffffffffffffffffffffffffffffffffffffffff16905090565b6104d1610a62565b806003819055507f41d466ebd06fb97e7786086ac8b69b7eb7da798592036251291d34e9791cde01816040516105079190610c60565b60405180910390a150565b61051a610950565b6000811161055d576040517f08c379a000000000000000000000000000000000000000000000000000000000815260040161055490610f8f565b60405180910390fd5b61056633610996565b80600660003373ffffffffffffffffffffffffffffffffffffffff1673ffffffffffffffffffffffffffffffffffffffff16815260200190815260200160002060000160008282546105b89190610faf565b9250508190555042600660003373ffffffffffffffffffffffffffffffffffffffff1673ffffffffffffffffffffffffffffffffffffffff1681526020019081526020016000206002018190555080600460008282546106189190610faf565b92505081905550600260009054906101000a900473ffffffffffffffffffffffffffffffffffffffff1673ffffffffffffffffffffffffffffffffffffffff166323b872dd3330846040518463ffffffff1660e01b815260040161067e93929190610fe3565b6020604051808303816000875af115801561069d573d6000803e3d6000fd5b505050506040513d601f19601f820116820180604052508101906106c19190610f16565b506106ca610a58565b50565b600560009054906101000a900473ffffffffffffffffffffffffffffffffffffffff1681565b6106fb610950565b61070433610996565b6000600760003373ffffffffffffffffffffffffffffffffffffffff1673ffffffffffffffffffffffffffffffffffffffff1681526020019081526020016000205490506000600760003373ffffffffffffffffffffffffffffffffffffffff1673ffffffffffffffffffffffffffffffffffffffff16815260200190815260200160002081905550600260009054906101000a900473ffffffffffffffffffffffffffffffffffffffff1673ffffffffffffffffffffffffffffffffffffffff1663a9059cbb33836040518363ffffffff1660e01b81526004016107ea929190610eb5565b6020604051808303816000875af1158015610809573d6000803e3d6000fd5b505050506040513d601f19601f8201168201806040525081019061082d9190610f16565b5050610837610a58565b565b600080600660008473ffffffffffffffffffffffffffffffffffffffff1673ffffffffffffffffffffffffffffffffffffffff1681526020019081526020016000209050600081600201544261088f9190610e81565b90506000610e108260035485600001546108a9919061101a565b6108b3919061101a565b6108bd919061108b565b9050809350505050919050565b6108d2610a62565b600073ffffffffffffffffffffffffffffffffffffffff168173ffffffffffffffffffffffffffffffffffffffff16036109445760006040517f1e4fbdf700000000000000000000000000000000000000000000000000000000815260040161093b9190610d94565b60405180910390fd5b61094d81610ae9565b50565b60026000540361098c576040517f3ee5aeb500000000000000000000000000000000000000000000000000000000815260040160405180910390fd5b6002600081905550565b6000600660008373ffffffffffffffffffffffffffffffffffffffff1673ffffffffffffffffffffffffffffffffffffffff1681526020019081526020016000209050600081600001541115610a545760006109f183610839565b905080600760008573ffffffffffffffffffffffffffffffffffffffff1673ffffffffffffffffffffffffffffffffffffffff1681526020019081526020016000206000828254610a429190610faf565b92505081905550428260020181905550505b5050565b6001600081905550565b610a6a610baf565b73ffffffffffffffffffffffffffffffffffffffff16610a8861049f565b73ffffffffffffffffffffffffffffffffffffffff1614610ae757610aab610baf565b6040517f118cdaa7000000000000000000000000000000000000000000000000000000008152600401610ade9190610d94565b60405180910390fd5b565b6000600160009054906101000a900473ffffffffffffffffffffffffffffffffffffffff16905081600160006101000a81548173ffffffffffffffffffffffffffffffffffffffff021916908373ffffffffffffffffffffffffffffffffffffffff1602179055508173ffffffffffffffffffffffffffffffffffffffff168173ffffffffffffffffffffffffffffffffffffffff167f8be0079c531659141344cd1fd0a4f28419497f9722a3daafe3b4186f6b6457e060405160405180910390a35050565b600033905090565b600080fd5b600073ffffffffffffffffffffffffffffffffffffffff82169050919050565b6000610be782610bbc565b9050919050565b610bf781610bdc565b8114610c0257600080fd5b50565b600081359050610c1481610bee565b92915050565b600060208284031215610c3057610c2f610bb7565b5b6000610c3e84828501610c05565b91505092915050565b6000819050919050565b610c5a81610c47565b82525050565b6000602082019050610c756000830184610c51565b92915050565b6000606082019050610c906000830186610c51565b610c9d6020830185610c51565b610caa6040830184610c51565b949350505050565b610cbb81610c47565b8114610cc657600080fd5b50565b600081359050610cd881610cb2565b92915050565b600060208284031215610cf457610cf3610bb7565b5b6000610d0284828501610cc9565b91505092915050565b6000819050919050565b6000610d30610d2b610d2684610bbc565b610d0b565b610bbc565b9050919050565b6000610d4282610d15565b9050919050565b6000610d5482610d37565b9050919050565b610d6481610d49565b82525050565b6000602082019050610d7f6000830184610d5b565b92915050565b610d8e81610bdc565b82525050565b6000602082019050610da96000830184610d85565b92915050565b600082825260208201905092915050565b7f576974686472617720616d6f756e742065786365656473207374616b6564206160008201527f6d6f756e74000000000000000000000000000000000000000000000000000000602082015250565b6000610e1c602583610daf565b9150610e2782610dc0565b604082019050919050565b60006020820190508181036000830152610e4b81610e0f565b9050919050565b7f4e487b7100000000000000000000000000000000000000000000000000000000600052601160045260246000fd5b6000610e8c82610c47565b9150610e9783610c47565b9250828203905081811115610eaf57610eae610e52565b5b92915050565b6000604082019050610eca6000830185610d85565b610ed76020830184610c51565b9392505050565b60008115159050919050565b610ef381610ede565b8114610efe57600080fd5b50565b600081519050610f1081610eea565b92915050565b600060208284031215610f2c57610f2b610bb7565b5b6000610f3a84828501610f01565b91505092915050565b7f43616e6e6f74207374616b652030000000000000000000000000000000000000600082015250565b6000610f79600e83610daf565b9150610f8482610f43565b602082019050919050565b60006020820190508181036000830152610fa881610f6c565b9050919050565b6000610fba82610c47565b9150610fc583610c47565b9250828201905080821115610fdd57610fdc610e52565b5b92915050565b6000606082019050610ff86000830186610d85565b6110056020830185610d85565b6110126040830184610c51565b949350505050565b600061102582610c47565b915061103083610c47565b925082820261103e81610c47565b9150828204841483151761105557611054610e52565b5b5092915050565b7f4e487b7100000000000000000000000000000000000000000000000000000000600052601260045260246000fd5b600061109682610c47565b91506110a183610c47565b9250826110b1576110b061105c565b5b82820490509291505056fea2646970667358221220003a5897854ccbe8921a7332797b3cf1980c2e90a1eeaed832d6081724ef6caf64736f6c634300081b0033",
  "linkReferences": {},
  "deployedLinkReferences": {}
}